:100000000C9448000C94B8020C94E1020C940B037D
:100010000C9465000C94070A0C9490090C943E090A
:100020000C9467090C9415090C9465000C94410814
:100030000C9465000C944B0A0C9465000C94740AA3
:100040000C9465000C9465000C9465000C9465009C
:100050000C9465004E414E494E495459494E46CD87
:10006000CCCC3D0AD7233C17B7D13877CC2B32956F
:1000700095E6241FB14F0A000020410000C842004D
:10008000401C4620BCBE4CCA1B0E5AAEC59D740017
:1000900011241FBECFE5D8E0DEBFCDBF11E0A0E642
:1000A000B0E0E4EFFCE102C005900D92A63AB10782
:1000B000D9F722E0A6EAB1E001C01D92A431B2074F
:1000C000E1F70E9483070C94780E0C940000982F9F
:1000D0009695969596958770613009F455C020F0F5
:1000E000623009F4A1C008959130C1F028F0923037
:1000F00039F19330B9F108954AB321E030E0B90104
:1001000002C0660F771F8A95E2F7CB01942F982BD8
:100110009ABB9BB3809589238BBB089547B321E09D
:1001200030E0B90102C0660F771F8A95E2F7CB0174
:10013000942F982B97BB98B38095892388BB0895FB
:1001400044B321E030E0B90102C0660F771F8A9501
:10015000E2F7CB01942F982B94BB95B3809589231C
:1001600085BB089541B321E030E0B90102C0660FBC
:10017000771F8A95E2F7CB01942F982B91BB92B30E
:100180008095892382BB08959130C1F028F0923088
:1001900039F19330B9F108954AB321E030E0B90163
:1001A00002C0660F771F8A95E2F7CB018095942FE6
:1001B00098239ABB9BB389238BBB089547B321E057
:1001C00030E0B90102C0660F771F8A95E2F7CB01D4
:1001D0008095942F982397BB98B3892388BB089563
:1001E00044B321E030E0B90102C0660F771F8A9561
:1001F000E2F7CB018095942F982394BB95B3892384
:1002000085BB089541B321E030E0B90102C0660F1B
:10021000771F8A95E2F7CB018095942F982391BBA5
:1002200092B3892382BB08959130C1F028F09230B7
:1002300039F19330B9F108954AB321E030E0B901C2
:1002400002C0660F771F8A95E2F7CB01962F909533
:1002500094239ABB9BB3892B8BBB089547B321E0B2
:1002600030E0B90102C0660F771F8A95E2F7CB0133
:10027000962F9095942397BB98B3892B88BB0895AC
:1002800044B321E030E0B90102C0660F771F8A95C0
:10029000E2F7CB01962F9095942394BB95B3892BCD
:1002A00085BB089541B321E030E0B90102C0660F7B
:1002B000771F8A95E2F7CB01962F9095942391BBF7
:1002C00092B3892B82BB0895CF93C0E009C0EC2F75
:1002D000F0E0EC53FF4F60818C2F0E946700CF5FEE
:1002E000C032A8F3CF910895982F9695969596953C
:1002F00087706130E1F5913099F028F09230E9F0A3
:10030000933041F108954BB321E030E0B90102C0D0
:10031000660F771F8A95E2F7CB01842B8BBB08957C
:1003200048B321E030E0B90102C0660F771F8A951B
:10033000E2F7CB01842B88BB089545B321E030E080
:10034000B90102C0660F771F8A95E2F7CB01842BB3
:1003500085BB089542B321E030E0B90102C0660FC9
:10036000771F8A95E2F7CB01842B82BB0895611138
:100370003FC09130A1F028F09230F9F0933059F15C
:1003800008954BB321E030E0B90102C0660F771F3A
:100390008A95E2F7CB01809584238BBB089548B3FF
:1003A00021E030E0B90102C0660F771F8A95E2F7BD
:1003B000CB018095842388BB089545B321E030E0CC
:1003C000B90102C0660F771F8A95E2F7CB018095CD
:1003D000842385BB089542B321E030E0B90102C017
:1003E000660F771F8A95E2F7CB018095842382BB45
:1003F0000895982F969596959695482F4770913029
:1004000081F028F09230B9F09330F9F028C099B318
:10041000892F90E002C0959587954A95E2F7817003
:10042000089526B330E0C90102C0959587954A9595
:10043000E2F78170089523B330E0C90102C09595B9
:1004400087954A95E2F78170089520B330E0C9019D
:1004500002C0959587954A95E2F78170089580E0EE
:100460000895813041F018F0823049F008958BB73B
:1004700080648BBF08958BB780688BBF08958BB75E
:1004800080628BBF0895813049F120F0823009F4F9
:1004900049C00895613069F028F0623089F0633016
:1004A000B1F0089585B78E7F85BF85B78D7F85BFF5
:1004B000089585B7816085BF85B78D7F85BF089515
:1004C00085B78E7F85BF85B7826085BF089585B764
:1004D000816085BF85B7826085BF0895613069F00E
:1004E00028F0623089F06330B1F0089585B78B7FD2
:1004F00085BF85B7877F85BF089585B7846085BF31
:1005000085B7877F85BF089585B78B7F85BF85B702
:10051000886085BF089585B7846085BF85B788608A
:1005200085BF0895623019F0633029F008C084B7A0
:100530008F7B84BF089584B7806484BF089584B797
:100540008F7B84BF0895813049F018F0823059F0D4
:1005500008957093AB016093AA0108957093A90167
:100560006093A80108957093A7016093A601089570
:100570001F920F920FB60F9211242F933F934F9318
:100580005F936F937F938F939F93AF93BF93EF93FB
:10059000FF93E091AA01F091AB01309709F0099522
:1005A000FF91EF91BF91AF919F918F917F916F914B
:1005B0005F914F913F912F910F900FBE0F901F9021
:1005C000189578941F920F920FB60F9211242F93C3
:1005D0003F934F935F936F937F938F939F93AF93CB
:1005E000BF93EF93FF93E091A801F091A901309799
:1005F00009F00995FF91EF91BF91AF919F918F9174
:100600007F916F915F914F913F912F910F900FBE0E
:100610000F901F9018951F920F920FB60F921124F2
:100620002F933F934F935F936F937F938F939F93FA
:10063000AF93BF93EF93FF93E091A601F091A701D1
:10064000309709F00995FF91EF91BF91AF919F917C
:100650008F917F916F915F914F913F912F910F906B
:100660000FBE0F901F9018958091AC018F5F809303
:10067000AC018430A8F08091B2019091B301A091B7
:10068000B401B091B5010196A11DB11D8093B201D5
:100690009093B301A093B401B093B5011092AC0153
:1006A0000895CF93EAEDF1E08081918101969183E5
:1006B000808382E00E94F901C82F81E00E94F90145
:1006C00091E0C81390E09093B000CF910895CF933C
:1006D000EAEDF1E0828193810196938382838681A2
:1006E000978101969783868383E00E94F901C82F42
:1006F00083E00E94F90191E0C81390E09093B1006B
:1007000086E00E94F901C82F87E00E94F90191E07C
:10071000C81390E09093B300CF910895CF93EAED82
:10072000F1E08481958101969583848382E00E9423
:10073000F901C82F85E00E94F90191E0C81390E00B
:100740009093B200CF9108951F93CF93DF93E82F3A
:10075000813079F028F0823031F0833039F023C0D5
:1007600011E080E008C015E084E005C017E086E0F5
:1007700002C013E082E0D62FCE2F662341F061E065
:100780000E94740160E0812F0E94740107C060E044
:100790000E94740161E0812F0E947401EC2FF0E04F
:1007A000E055FF4FD083DF91CF911F9108958130A5
:1007B00051F028F0823059F0833059F0089570E0FC
:1007C0007BBD6ABD089570E079BD68BD08956CBFBA
:1007D000089563BD08950E9464010E94300A62E09A
:1007E00083E00E94EA0782E00E9414080E94380811
:1007F00084E393E00E943C0862E085E00E946A087E
:1008000082E00E94CD0882E00E94F10862E083E06D
:100810000E94B90982E00E94E30960E080E00E9442
:10082000D70360E081E00E94D70360E082E00E948D
:10083000D70360E083E00E94D70360E880E00E9475
:10084000A40360E881E00E94A40360E882E00E94C3
:10085000A40360E883E00E94A40361E080E00E94BA
:10086000430261E081E00E94430261E082E00E9475
:10087000430280E00E94310281E00E94310282E066
:100880000E94310261E573E080E00E94A30267E606
:1008900073E081E00E94A3026EE873E082E00E94B0
:1008A000A30208954F925F926F927F928F929F92D0
:1008B000AF92BF92CF92DF92EF92FF920F931F936E
:1008C000CF93DF9300D000D000D0CDB7DEB7A82EF5
:1008D000CB01BA01B12CA90198010E94B00A6B01A9
:1008E0007C0184E18A9D90018B9D300D1124205A5A
:1008F0003F4F3A832983F90120813181428153811D
:10090000C701B6010E940F0C2B013C012DEC3CEC01
:100910004CEC5DE3C701B6010E940F0CE981FA813E
:1009200024853585468557850E94B10AE981FA817B
:10093000648775878687978720E030E048E452E433
:100940000E940A0C181684F484E18A9DF0018B9DA4
:10095000F00D1124E05AFF4F80E090E0A8E4B2E4EB
:1009600084879587A687B78784E18A9DF0018B9D50
:10097000F00D1124E05AFF4F6485758586859785B3
:1009800020E030E048E452EC0E941D0B882384F400
:1009900084E18A9DF0018B9DF00D1124E05AFF4FF8
:1009A00080E090E0A8E4B2EC84879587A687B787BB
:1009B00084E18A9D90018B9D300D1124205A3F4F78
:1009C0003E832D83F9016481758186819781248519
:1009D0003585468557850E940F0C69837A838B8302
:1009E0009C83ED81FE8180849184A284B3842089DC
:1009F000318942895389C701B6010E94B00A9B011F
:100A0000AC01C501B4010E940F0C20E030E040E2CF
:100A100051E40E940F0C4B015C01ED81FE81C08A04
:100A2000D18AE28AF38A29813A814B815C81C301B0
:100A3000B2010E94B10A9B01AC01C501B4010E9440
:100A4000B10A6B017C0120E030E04FE753E40E94E3
:100A50000A0C181644F40F2EC12CD12CFFE7EF2EF0
:100A6000F3E4FF2EF02D20E030E0A901C701B6012C
:100A70000E941D0B88231CF4C12CD12C7601C701C8
:100A8000B60126960FB6F894DEBF0FBECDBFDF913C
:100A9000CF911F910F91FF90EF90DF90CF90BF907B
:100AA000AF909F908F907F906F905F904F90089540
:100AB000EF92FF920F931F93CF93DF93CDB7DEB7E3
:100AC0002A970FB6F894DEBF0FBECDBFA2EFB1E0FC
:100AD00053C0CD010196EE2309F451C01FE91E0F4A
:100AE000143008F048C07D0122E0E20EF11C11969E
:100AF0009C91992309F443C081E0903709F080E08C
:100B0000082F90E00BC0EFEFEE1AFE0AE1E0F0E0F4
:100B1000EC0FFD1FE90FF11D80839F5FF7018081BE
:100B2000882321F08C3211F0993068F3E1E0F0E095
:100B3000EC0FFD1FE90FF11D1082CE0101960E94FE
:100B4000960C011101C09058143060F4E12FF0E0D0
:100B5000EE0FFF1FEE0FFF1FE653FE4F6083718302
:100B600082839383F70180818C3219F4FFEFEF1AAF
:100B7000FF0AD70101C0DC01EC91E111AACF2A964E
:100B80000FB6F894DEBF0FBECDBFDF91CF911F919E
:100B90000F91FF90EF900895CF92DF92EF92FF9226
:100BA0006B017C0120E030E0A9010E941D0B88232D
:100BB00024F4C701B601905802C0C701B601FF90E6
:100BC000EF90DF90CF9008954F925F926F927F9257
:100BD0008F929F92AF92BF92FF920F931F93CF93EA
:100BE000DF93CDB7DEB72A970FB6F894DEBF0FBEFE
:100BF000CDBFF12C82C081E68F0D0E943C0A0F2DE3
:100C000010E0F801EE0FFF1FEE0FFF1FE654FE4F3E
:100C1000608171818281938120E030E0A9010E948E
:100C20000A0C882314F080E701C08EE60E943C0A7B
:100C3000F801EE0FFF1FEE0FFF1FE654FE4F60811D
:100C40007181828193810E94CC0520E030E040E2F6
:100C500051E40E941D0B88231CF480E30E943C0A8F
:100C6000000F111F000F111FF801E654FE4F6081A5
:100C70007181828193810E94CC054B015C010E94AD
:100C8000220B2B013C01072E000C880B990B0E94B4
:100C90005A0B9B01AC01C501B4010E94B00A20E0CF
:100CA00030E048EC52E40E940F0C0E94220B4B01F2
:100CB0005C018B014AE0BE016F5F7F4FC2010E9461
:100CC0009A0CCE0101960E949D0A8EE20E943C0A77
:100CD0000A3011051CF480E30E943C0A4AE0BE0180
:100CE0006F5F7F4FC4010E949A0CCE0101960E9453
:100CF0009D0A8CE20E943C0AF39483E08F1508F071
:100D00007ACF8EE891E00E949D0A2A960FB6F89459
:100D1000DEBF0FBECDBFDF91CF911F910F91FF902E
:100D2000BF90AF909F908F907F906F905F904F900B
:100D300008958F929F92AF92BF92DF92EF92FF92AF
:100D40000F931F93CF93DF93CDB7DEB760970FB6A6
:100D5000F894DEBF0FBECDBF80E1E4EBF0E0DE0132
:100D6000119601900D928A95E1F7D12C46C00D2D78
:100D700010E07801EE0CFF1CEE0CFF1CE1E0F0E04F
:100D8000EC0FFD1FEE0DFF1D80809180A280B380CF
:100D9000F801EE0FFF1FE652FE4F6081718180E087
:100DA00090E00E94580B20E030E040E251E40E94C5
:100DB0000F0C2CE633E247ED5AE30E940F0C9B0127
:100DC000AC01C501B4010E940F0CF701E654FE4FBF
:100DD0006083718382839383F801E055FF4F208104
:100DE00021110AC0DC01CB01B058F701E654FE4FD7
:100DF00080839183A283B383D39483E08D1508F01D
:100E0000B6CFD12C5BC0ED2CF12CF701EE0FFF1FFC
:100E1000EE0FFF1FE653FE4F80809180A280B380CB
:100E2000C501B4010E94CC052AE037ED43E25CE342
:100E30000E940A0C1816B4F511E020E030E0A90178
:100E4000C501B4010E940A0C88230CF410E0612F44
:100E50008D2D0E94A4038701000F111F000F111F89
:100E6000F801E654FE4F60817181828193810E9476
:100E7000CC054B015C01F801E653FE4F60817181A6
:100E8000828193810E94CC05AB01BC019501840154
:100E90008D2D0E9452040E94290BF701EA54FE4F47
:100EA000608304C0F701EA54FE4F1082F701EA5450
:100EB000FE4F60818D2D0E94D703D39483E08D1562
:100EC00008F0A1CF80E009C0E82FF0E0EE0FFF1F8F
:100ED000E652FE4F118210828F5F8430A8F30E9489
:100EE000E40560960FB6F894DEBF0FBECDBFDF916C
:100EF000CF911F910F91FF90EF90DF90BF90AF9037
:100F00009F908F900895CF93DF931F92CDB7DEB758
:100F10002FEF83ED90E3215080409040E1F700C037
:100F200000000E94EB037894198281E991E00E940D
:100F30009D0A8091B2019091B301A091B401B0914A
:100F4000B5014091AE015091AF016091B001709137
:100F5000B101841B950BA60BB70B84369105A10537
:100F6000B10590F00E9499068091B2019091B30171
:100F7000A091B401B091B5018093AE019093AF01FF
:100F8000A093B001B093B101CE0101960E94400A36
:100F9000882379F289818A3011F08D3069F4E091EB
:100FA000AD01EE2331F2F0E0EE50FE4F10820E94D0
:100FB00058051092AD01BDCFE091AD01EF3108F0C1
:100FC000B8CF91E09E0F9093AD01F0E0EE50FE4F50
:100FD0008083AFCF813069F028F0823089F0833090
:100FE000B1F01BC083B78F7B83BF83B7877F83BF7D
:100FF00014C083B7806483BF83B7877F83BF0DC06E
:1010000083B78F7B83BF83B7886083BF06C083B7F6
:10101000806483BF83B7886083BF83B7887F83BFC3
:1010200083B7682B63BF0895813069F028F0823060
:1010300089F08330B1F0089583B78F7E83BF83B783
:101040008F7D83BF089583B7806183BF83B78F7D12
:1010500083BF089583B78F7E83BF83B7806283BFCA
:10106000089583B7806183BF83B7806283BF08958B
:1010700089B7816089BF08959093ED018093EC0159
:1010800008951F920F920FB60F9211242F933F9342
:101090004F935F936F937F938F939F93AF93BF9380
:1010A000EF93FF93E091EC01F091ED01309709F09F
:1010B0000995FF91EF91BF91AF919F918F917F9192
:1010C0006F915F914F913F912F910F900FBE0F90B5
:1010D0001F901895823039F128F4882351F081301F
:1010E000A9F054C08430C9F158F1853009F442C0E8
:1010F0004DC08FB58E7F8FBD8FB58D7F8FBD8EB567
:10110000877F8EBD8EB58F7E8EBD40C08FB58E7FA2
:101110008FBD8FB58D7F8FBD8EB588608EBD8EB52E
:1011200080618EBD33C08FB58E7F8FBD8FB58D7FB3
:101130008FBD8EB588608EBD8EB58F7E8EBD26C06C
:101140008FB58E7F8FBD8FB582608FBD8EB5886065
:101150008EBD8EB580618EBD19C08FB581608FBD8B
:101160008FB582608FBD8EB588608EBD8EB5806173
:101170008EBD0CC08FB581608FBD8FB58D7F8FBD4B
:101180008EB588608EBD8EB58F7E8EBD8EB5887F04
:101190008EBD8EB5682B6EBD0895813069F028F044
:1011A000823089F08330B1F008958FB58F7B8FBD89
:1011B0008FB58F778FBD08958FB580648FBD8FB544
:1011C0008F778FBD08958FB58F7B8FBD8FB580686A
:1011D0008FBD08958FB580648FBD8FB580688FBD3A
:1011E0000895813069F028F0823089F08330B1F0C1
:1011F00008958FB58F7E8FBD8FB58F7D8FBD08957C
:101200008FB580618FBD8FB58F7D8FBD08958FB5F0
:101210008F7E8FBD8FB580628FBD08958FB5806141
:101220008FBD8FB580628FBD08951F920F920FB64C
:101230000F9211242F933F934F935F936F937F935C
:101240008F939F93AF93BF93EF93FF93E091E80148
:10125000F091E901309709F00995FF91EF91BF9165
:10126000AF919F918F917F916F915F914F913F913E
:101270002F910F900FBE0F901F9018951F920F92F5
:101280000FB60F9211242F933F934F935F936F9359
:101290007F938F939F93AF93BF93EF93FF93E091CF
:1012A000E601F091E701309709F00995FF91EF9180
:1012B000BF91AF919F918F917F916F915F914F916E
:1012C0003F912F910F900FBE0F901F9018951F9276
:1012D0000F920FB60F9211242F933F934F935F936A
:1012E0006F937F938F939F93AF93BF93EF93FF93EE
:1012F000E091E401F091E501309709F00995FF9143
:10130000EF91BF91AF919F918F917F916F915F917D
:101310004F913F912F910F900FBE0F901F901895F6
:101320001F920F920FB60F9211242F933F934F935A
:101330005F936F937F938F939F93AF93BF93EF933D
:10134000FF93E091E201F091E301309709F00995F4
:10135000FF91EF91BF91AF919F918F917F916F918D
:101360005F914F913F912F910F900FBE0F901F9063
:101370001895813069F028F0823089F08330B1F01F
:101380001BC085B58F7B85BD83B7877F83BF14C0A6
:1013900085B5806485BD85B5877F85BD0DC085B564
:1013A0008F7B85BD85B5886085BD06C085B58064A9
:1013B00085BD85B5886085BD85B5887F85BD85B5CA
:1013C000682B65BD0895813069F028F0823089F07E
:1013D0008330B1F0089585B58F7E85BD85B58F7D4D
:1013E00085BD089585B5806185BD85B58F7D85BD39
:1013F000089585B58F7E85BD85B5806285BD0895CC
:1014000085B5806185BD85B5806285BD08951F92D3
:101410000F920FB60F9211242F933F934F935F9328
:101420006F937F938F939F93AF93BF93EF93FF93AC
:10143000E091EA01F091EB01309709F00995FF91F5
:10144000EF91BF91AF919F918F917F916F915F913C
:101450004F913F912F910F900FBE0F901F901895B5
:1014600083E389B98BB18D7F8BB98AB188608AB9E2
:101470008AB180618AB908955D9BFECF8CB90895C9
:10148000FC019BB1892F881F8827881F19F08CB118
:10149000808381E008951F920F920FB60F9211245E
:1014A0002F933F934F935F936F937F938F939F936C
:1014B000AF93BF93EF93FF93E091F001F091F101AF
:1014C000309709F00995FF91EF91BF91AF919F91EE
:1014D0008F917F916F915F914F913F912F910F90DD
:1014E0000FBE0F901F9018951F920F920FB60F927C
:1014F00011242F933F934F935F936F937F938F9319
:101500009F93AF93BF93EF93FF93E091EE01F09120
:10151000EF01309709F00995FF91EF91BF91AF91DD
:101520009F918F917F916F915F914F913F912F91FB
:101530000F900FBE0F901F9018950F931F93CF938E
:101540008C01C0E003C00E943C0ACF5FF801EC0FA1
:10155000F11D80818111F7CFCF911F910F910895D7
:101560005058BB27AA270E94C80A0C94D00B0E948F
:10157000C20B38F00E94C90B20F039F49F3F19F4D8
:1015800026F40C94BF0B0EF4E095E7FB0C94B90B1A
:10159000E92F0E94E10B58F3BA176207730784071B
:1015A000950720F079F4A6F50C94030C0EF4E09561
:1015B0000B2EBA2FA02D0B01B90190010C01CA010D
:1015C000A0011124FF27591B99F0593F50F4503EB8
:1015D00068F11A16F040A22F232F342F4427585FAA
:1015E000F3CF469537952795A795F0405395C9F7C2
:1015F0007EF41F16BA0B620B730B840BBAF091507A
:10160000A1F0FF0FBB1F661F771F881FC2F70EC018
:10161000BA0F621F731F841F48F4879577956795EB
:10162000B795F7959E3F08F0B0CF9395880F08F0D7
:101630009927EE0F9795879508950E94950B08F4CA
:1016400081E008950E94290B6894B1110C94040C58
:1016500008950E94E90B88F09F5798F0B92F9927B9
:10166000B751B0F0E1F0660F771F881F991F1AF08D
:10167000BA95C9F714C0B13091F00E94030CB1E0E3
:1016800008950C94030C672F782F8827B85F39F0E2
:10169000B93FCCF3869577956795B395D9F73EF426
:1016A00090958095709561957F4F8F4F9F4F0895CE
:1016B000E89409C097FB3EF49095809570956195EC
:1016C0007F4F8F4F9F4F9923A9F0F92F96E9BB27A2
:1016D0009395F695879577956795B795F111F8CF1E
:1016E000FAF4BB0F11F460FF1BC06F5F7F4F8F4F89
:1016F0009F4F16C0882311F096E911C0772321F07F
:101700009EE8872F762F05C0662371F096E8862F16
:1017100070E060E02AF09A95660F771F881FDAF76D
:10172000880F9695879597F90895990F0008550F9A
:10173000AA0BE0E8FEEF16161706E807F907C0F057
:1017400012161306E407F50798F0621B730B840B5F
:10175000950B39F40A2661F0232B242B252B21F439
:1017600008950A2609F4A140A6958FEF811D811DD9
:10177000089597F99F6780E870E060E008959FEF13
:1017800080EC089500240A94161617061806090618
:10179000089500240A9412161306140605060895E7
:1017A000092E0394000C11F4882352F0BB0F40F46F
:1017B000BF2B11F460FF04C06F5F7F4F8F4F9F4FAF
:1017C000089557FD9058440F551F59F05F3F71F031
:1017D0004795880F97FB991F61F09F3F79F0879598
:1017E0000895121613061406551FF2CF4695F1DF21
:1017F00008C0161617061806991FF1CF86957105B1
:10180000610508940895E894BB2766277727CB01E4
:1018100097F908950E94950B08F48FEF08950E94A0
:10182000220C0C94D00B0E94C20B38F00E94C90B02
:1018300020F0952311F00C94B90B0C94BF0B1124DC
:101840000C94040C0E94E10B70F3959FC1F3950F6B
:1018500050E0551F629FF001729FBB27F00DB11D34
:10186000639FAA27F00DB11DAA1F649F6627B00DC4
:10187000A11D661F829F2227B00DA11D621F739FAD
:10188000B00DA11D621F839FA00D611D221F749FBB
:101890003327A00D611D231F849F600D211D822F02
:1018A000762F6A2F11249F5750409AF0F1F0882329
:1018B0004AF0EE0FFF1FBB1F661F771F881F915056
:1018C0005040A9F79E3F510580F00C94B90B0C9441
:1018D000040C5F3FE4F3983ED4F3869577956795C3
:1018E000B795F795E7959F5FC1F7FE2B880F911D80
:1018F0009695879597F90895A29FB001B39FC0016F
:10190000A39F700D811D1124911DB29F700D811D2B
:101910001124911D08950E947C0CA59F900DB49FE9
:10192000900DA49F800D911D11240895662777279F
:101930000C94BF0CBB274A3031F4992322F4BDE24A
:10194000909581959F4F0C94A60CBB27FB015527C2
:10195000AA27880F991FAA1FA41710F0A41B83950C
:101960005051B9F7A05DAA3308F0A95DA193009783
:1019700079F7B111B1931192CB010C942E0EA0E026
:10198000B0E0E5ECFCE00C94470EEC016B01611556
:10199000710519F0FB01918380837E01FFEFEF1A3F
:1019A000FF0A0881802F90E00E940D0E892B11F014
:1019B000E701F3CF0D3239F47E0182E0E80EF11C2D
:1019C000098111E008C00B3229F47E0192E0E90E92
:1019D000F11C098110E0E701219743E050E06CE53C
:1019E00070E0CE010E94160E892BC1F4239645E0CB
:1019F00050E067E570E0CE010E94160E892B09F4D5
:101A00002596C114D10419F0F601D183C0831111B8
:101A1000F6C060E070E080E89FE7FAC043E050E085
:101A200064E570E0CE010E94160E892B59F4C114B2
:101A3000D10409F4E9C0F2E0EF0EF11CF601F182E5
:101A4000E082E2C020E030E0A901C0E0D0E0F70190
:101A500080EDA82EA00E89E08A1530F1912F9260BA
:101A6000B92E812F887012FF04C0811124C02196E5
:101A700022C081112197A5E0B0E00E948B0CDC010F
:101A8000CB01880F991FAA1FBB1F9C01AD012A0D16
:101A9000311D411D511D283989E93807480789E161
:101AA000580748F0166006C09EEFA9120AC013FD41
:101AB00040C01860B12E8FEFE81AF80A00811B2D84
:101AC000C6CF802F8F7D8534A1F580818D3211F4B2
:101AD000106106C08B3221F0319661E070E004C0E5
:101AE0008181329662E070E080538A3018F0E61B04
:101AF000F70B1FC060E070E060389CE079075CF491
:101B0000DB01AA0FBB1FAA0FBB1F6A0F7B1F660F4B
:101B1000771F680F711D3196DF0111978C918053EB
:101B20008A3050F314FF03C0719561957109C60F97
:101B3000D71F11FF08C0C114D10429F0CF010197AC
:101B4000F60191838083CA01B9010E94580B212FAD
:101B50002370233019F04B015C0106C04B015C017E
:101B6000B7FAB094B7F8B09420E030E0A901C5010D
:101B7000B4010E941D0B882309F43EC0D7FF06C0A4
:101B8000D195C195D10903E710E002C00BE810E040
:101B90006801F8E1CF1AD10890E2E92EF12CCE15B8
:101BA000DF0574F0F8012591359145915491C501F7
:101BB000B4010E940F0C4B015C01CE19DF09EFCF7D
:101BC00004501109F594E7940C151D0541F78A2D71
:101BD000880F8B2D881F8F3F49F020E030E0A9014E
:101BE000C501B4010E941D0B811106C082E290E084
:101BF0009093130280931202C501B40109C060E002
:101C000070E080E89FEF04C060E070E080EC9FE748
:101C1000CDB7DEB7ECE00C94630E91110C943E0E40
:101C2000803219F089508550C8F70895FB01DC0116
:101C30004150504088F08D9181341CF08B350CF46C
:101C4000805E659161341CF06B350CF4605E861B20
:101C5000611171F3990B0895881BFCCFDC01FC0125
:101C6000672F71917723E1F7329704C07C916D93D0
:101C700070836291AE17BF07C8F30895992788272C
:101C800008952F923F924F925F926F927F928F9220
:101C90009F92AF92BF92CF92DF92EF92FF920F93FB
:101CA0001F93CF93DF93CDB7DEB7CA1BDB0B0FB605
:101CB000F894DEBF0FBECDBF09942A8839884888C2
:101CC0005F846E847D848C849B84AA84B984C88458
:101CD000DF80EE80FD800C811B81AA81B981CE0F4F
:101CE000D11D0FB6F894DEBF0FBECDBFED01089534
:041CF000F894FFCF96
:101CF4000000F0410000A04000000040000000008F
:101D0400000000000000F0410000A040000000407E
:101D140000000000000000000000F0410000A040AE
:101D24000000004000000000000000000000F0413E
:101D34000000A0400000004000000000000000007F
:101D4400808080800000803F000000400000803FD1
:101D5400000000400000000000000000010101003C
:101D64000000000000010001020101010100010165
:101D7400000001000D0A5541525420446961676E08
:101D84006F73746963205374617274696E672E2E65
:101D94002E0D0A0054657374696E672052584320EF
:101DA400666C6167206469726563746C793A2000BB
:101DB400526563656976656420627974653A2000CA
:101DC4004E4F54205345540D0A0053656E642061F0
:101DD4002063686172616374657220746F20746536
:101DE400737420726563657074696F6E2E2E2E0D88
:101DF4000A00436861726163746572207265636589
:101E0400697665643A2000554152542072656365D1
:101E14007074696F6E20776F726B696E67210D0A3B
:101E240000414353415220526F626F7420526561E6
:061E340064790D0A0000B4
:00000001FF
