:100000000C9448000C944E020C9477020C94A002BD
:100010000C9465000C94A4090C943C090C94EA0817
:100020000C9413090C94C1080C9465000C942108DD
:100030000C9465000C94E2090C9465000C940B0A76
:100040000C9465000C9465000C9465000C9465009C
:100050000C9465004E414E494E495459494E46CD87
:10006000CCCC3D0AD7233C17B7D13877CC2B32956F
:1000700095E6241FB14F0A000020410000C842004D
:10008000401C4620BCBE4CCA1B0E5AAEC59D740017
:1000900011241FBECFE5D8E0DEBFCDBF11E0A0E642
:1000A000B0E0E2E2FCE102C005900D92A639B10792
:1000B000D9F722E0A6E9B1E001C01D92AC30B20749
:1000C000E1F70E947A070C940F0E0C940000E4EB09
:1000D000F0E040E081E090E05191342F3695369584
:1000E0003695242F2770513009F443C020F0523048
:1000F00009F482C0C5C0323001F1333061F13130D2
:1001000071F05AB3BC0102C0660F771F2A95E2F75F
:100110009B01352F322B3ABB3BB320953DC057B3E3
:10012000BC0102C0660F771F2A95E2F79B01352FAD
:10013000322B37BB38B320953EC054B3BC0102C04C
:10014000660F771F2A95E2F79B01352F322B34BBC0
:1001500035B320953FC051B3BC0102C0660F771F75
:100160002A95E2F79B01352F322B31BB32B3209514
:1001700041C0323011F1333081F1313079F05AB36E
:10018000BC0102C0660F771F2A95E2F79B012095FC
:10019000352F32233ABB3BB3232342C057B3BC01B4
:1001A00002C0660F771F2A95E2F79B012095352F35
:1001B000322337BB38B3232343C054B3BC0102C03E
:1001C000660F771F2A95E2F79B012095352F322382
:1001D00034BB35B3232325BB53C051B3BC0102C08C
:1001E000660F771F2A95E2F79B012095352F322362
:1001F00031BB32B3232343C0323021F1333089F194
:10020000313081F05AB3BC0102C0660F771F2A95C6
:10021000E2F79B01362F309535233ABB3BB3232BB6
:100220002BBB2EC057B3BC0102C0660F771F2A95A7
:10023000E2F79B01362F3095352337BB38B3232B9C
:1002400028BB1EC054B3BC0102C0660F771F2A959D
:10025000E2F79B01362F3095352334BB35B3232B82
:10026000BACF51B3BC0102C0660F771F2A95E2F7DF
:100270009B01362F3095352331BB32B3232B22BB64
:100280004F5F403209F028CF0895982F96959695A4
:10029000969587706130C1F5913091F028F09230D9
:1002A000D9F0933029F108954BB321E030E0B90142
:1002B00002C0660F771F8A95E2F7CB01842B3AC004
:1002C00048B321E030E0B90102C0660F771F8A957C
:1002D000E2F7CB01842B3CC045B321E030E0B9010B
:1002E00002C0660F771F8A95E2F7CB01842B3EC0D0
:1002F00042B321E030E0B90102C0660F771F8A9552
:10030000E2F7CB01842B40C061113FC09130A1F0D6
:1003100028F09230F9F0933059F108954BB321E071
:1003200030E0B90102C0660F771F8A95E2F7CB0172
:10033000809584238BBB089548B321E030E0B90158
:1003400002C0660F771F8A95E2F7CB018095842360
:1003500088BB089545B321E030E0B90102C0660FC3
:10036000771F8A95E2F7CB018095842385BB08959A
:1003700042B321E030E0B90102C0660F771F8A95D1
:10038000E2F7CB018095842382BB0895282F277044
:10039000869586958695813049F030F0823041F01F
:1003A000833079F480B305C089B303C086B301C03C
:1003B00083B390E002C0959587952A95E2F7817006
:1003C000089580E00895813039F018F0823039F0D6
:1003D00008958BB7806405C08BB7806802C08BB767
:1003E00080628BBF08958130F1F018F08230B1F156
:1003F0000895613049F028F0623061F0633069F0AF
:10040000089585B78E7F02C085B7816085BF85B7A7
:100410008D7F22C085B78E7F02C085B7816085BF82
:1004200085B7826019C0613049F028F0623061F010
:10043000633069F0089585B78B7F02C085B784600B
:1004400085BF85B7877F08C085B78B7F02C085B71A
:10045000846085BF85B7886085BF0895623029F0C4
:10046000633019F484B7806402C084B78F7B84BF83
:100470000895813049F018F0823059F00895709352
:100480009B0160939A01089570939901609398017C
:100490000895709397016093960108951F920F92AB
:1004A0000FB60F9211242F933F934F935F936F9347
:1004B0007F938F939F93AF93BF93EF93FF93E091BD
:1004C0009A01F0919B01309709F00995FF91EF9106
:1004D000BF91AF919F918F917F916F915F914F915C
:1004E0003F912F910F900FBE0F901F9018951F9264
:1004F0000F920FB60F9211242F933F934F935F9358
:100500006F937F938F939F93AF93BF93EF93FF93DB
:10051000E0919801F0919901309709F00995FF91C8
:10052000EF91BF91AF919F918F917F916F915F916B
:100530004F913F912F910F900FBE0F901F901895E4
:100540001F920F920FB60F9211242F933F934F9348
:100550005F936F937F938F939F93AF93BF93EF932B
:10056000FF93E0919601F0919701309709F009957A
:10057000FF91EF91BF91AF919F918F917F916F917B
:100580005F914F913F912F910F900FBE0F901F9051
:10059000189580919C018F5F80939C018430A8F016
:1005A0008091A2019091A301A091A401B091A50115
:1005B0000196A11DB11D8093A2019093A301A09368
:1005C000A401B093A50110929C01089581E00E94BE
:1005D000C601882361F08091CA019091CB01A0915E
:1005E000CC01B091CD010197A109B1090BC0809157
:1005F000CA019091CB01A091CC01B091CD0101969F
:10060000A11DB11D8093CA019093CB01A093CC0191
:10061000B093CD01089583E00E94C601882361F064
:100620008091CE019091CF01A091D001B091D101E4
:100630000197A109B1090BC08091CE019091CF0122
:10064000A091D001B091D1010196A11DB11D80935F
:10065000CE019093CF01A093D001B093D10187E058
:100660000E94C60181110CC08091D6019091D701E2
:10067000A091D801B091D9010197A109B1090BC08E
:100680008091D6019091D701A091D801B091D90164
:100690000196A11DB11D8093D6019093D701A0931F
:1006A000D801B093D901089585E00E94C601811157
:1006B0000CC08091D2019091D301A091D401B0914E
:1006C000D5010197A109B1090BC08091D201909188
:1006D000D301A091D401B091D5010196A11DB11D06
:1006E0008093D2019093D301A093D401B093D5010C
:1006F00008951F93CF93DF93E82F813041F068F086
:10070000823041F0833001F5D7E086E008C0D2E0C6
:1007100083E005C0D5E084E002C0D0E081E0162F80
:10072000CE2F611105C061E00E94450160E004C068
:1007300060E00E94450161E08D2F0E944501EC2F91
:10074000F0E0E055FF4F1083DF91CF911F910895A6
:100750000E9467000E94CD0962E083E00E94DD07ED
:1007600082E00E94FD070E94180889EC92E00E9436
:100770001C0862E085E00E944A0882E00E948B0823
:1007800082E00E94A60862E083E00E94650982E0A0
:100790000E94890960E880E00E94790360E881E0B6
:1007A0000E94790360E882E00E94790360E883E0B8
:1007B0000E9479031BBC1ABC19BC18BC1CBE13BC1C
:1007C00063E080E00E94F30163E081E00E94F301B6
:1007D00063E082E00E94F30180E00E94E30181E097
:1007E0000E94E30182E00E94E30166EE72E080E095
:1007F0000E9439026BE073E081E00E94390264E5F7
:1008000073E082E00C943902813051F028F082309C
:1008100059F0833059F0089570E07BBD6ABD0895AA
:1008200070E079BD68BD08956CBF089563BD0895FB
:100830002F923F924F925F926F927F928F929F92F0
:10084000AF92BF92CF92DF92EF92FF920F931F93DE
:10085000CF93DF9300D000D000D0CDB7DEB7282EE5
:10086000CB01BA01312CA90198010E94470A6B0102
:100870007C0184E1829D9001839D300D1124205ADA
:100880003F4F3A832983F90120813181428153818D
:10089000C701B6010E94A60B4B015C012DEC3CEC9C
:1008A0004CEC5DE3C701B6010E94A60BE981FA8119
:1008B00024853585468557850E94480A2B013C01D1
:1008C00020E030E040EA50E40E94A10B18163CF012
:1008D000E981FA8144865586668677860AC080E07B
:1008E00090E0A0EAB0E4E981FA8184879587A68741
:1008F000B78784E1829D9001839D300D1124205A99
:100900003F4F3A83298320E030E040EA50ECE98110
:10091000FA8164857585868597850E94B40A87FF6C
:100920000AC080E090E0A0EAB0ECE981FA81848717
:100930009587A687B78784E1829D9001839D300DBE
:100940001124205A3F4F3E832D83F901248535859C
:100950004685578564817581868197810E94A60BA3
:100960002B013C01ED81FE81208931894289538927
:10097000C701B6010E94470AED81FE8120853185BD
:10098000428553850E94A60B20E030E040E251E40E
:100990000E94A60B69837A838B839C83ED81FE8101
:1009A000C08AD18AE28AF38AA3019201C501B40107
:1009B0000E94480A29813A814B815C810E94480A41
:1009C0006B017C0120E030E04FE753E40E94A10B73
:1009D00018166CF020E030E0A901C701B6010E94B2
:1009E000B40A87FF0AC0C12CD12C760106C0C12CE5
:1009F000D12C8FE7E82E83E4F82EC701B6012696A6
:100A00000FB6F894DEBF0FBECDBFDF91CF911F911F
:100A10000F91FF90EF90DF90CF90BF90AF909F909D
:100A20008F907F906F905F904F903F902F900895A0
:100A3000EF92FF920F931F93CF93DF93CDB7DEB763
:100A40002A970FB6F894DEBF0FBECDBF0AEE11E0B5
:100A5000F801DF0181918823B1F19FE9F92EF80EA9
:100A600023E02F15B0F3FD0132961196EC90EE20A5
:100A700051F1DE01119690E0AD018F012191222309
:100A800039F02C3229F0993019F09F5F2D93F5CF72
:100A9000FA01E90FF11D1082CA010E942D0CE0E756
:100AA000EE12905824E0F29EF0011124E654FE4F1D
:100AB0006083718382839383F80180818C3241F655
:100AC0000F5F1F4FC5CF2A960FB6F894DEBF0FBE3B
:100AD000CDBFDF91CF911F910F91FF90EF900895BF
:100AE0003F924F925F926F927F928F929F92AF92BE
:100AF000BF92CF92DF92EF92FF920F931F93CF930B
:100B0000DF93CDB7DEB72A970FB6F894DEBF0FBEDE
:100B1000CDBF0AEA11E081E6382E832D0E94D30969
:100B200020E030E0A901F801608171818281938128
:100B30000E94A10B87FD02C080E701C08EE60E94E3
:100B4000D309F801C080D180E280F38020E030E05A
:100B5000A901C701B6010E94B40A87FF0BC020E0BB
:100B600030E040E251ECC701B6010E94A10B18161B
:100B7000E4F40AC020E030E040E251E4C701B601ED
:100B80000E94B40A87FF03C080E30E94D309F801E2
:100B9000C080D180E280F38020E030E0A901C7016D
:100BA000B6010E94B40A87FF04C0F7FAF094F7F880
:100BB000F094C701B6010E94B90A2B013C01072E2F
:100BC000000C880B990B0E94F10A9B01AC01C70134
:100BD000B6010E94470A20E030E048EC52E40E944F
:100BE000A60B0E94B90A4B015C014AE0BE016F5F8F
:100BF0007F4FC2010E94310CCE0101960E94340A3F
:100C00008EE20E94D309FAE08F1691041CF480E36F
:100C10000E94D3094AE0BE016F5F7F4FC4010E946A
:100C2000310CCE0101960E94340A8CE20E94D30955
:100C300033940C5F1F4F85E638126FCF8EE791E03B
:100C40000E94340A2A960FB6F894DEBF0FBECDBFBD
:100C5000DF91CF911F910F91FF90EF90DF90CF9098
:100C6000BF90AF909F908F907F906F905F904F90CC
:100C70003F9008952F923F924F925F926F927F9292
:100C80008F929F92AF92BF92CF92DF92EF92FF929C
:100C90000F931F93CF93DF9300D01F92CDB7DEB792
:100CA0003AEA232E31E0332E86EA91E09B838A8351
:100CB0006C018101E12CF12CF701EE0FFF1FEE0F0B
:100CC000FF1FE653FE4F6081718182819381808096
:100CD0009180A280B38089288A288B2821F0F60190
:100CE0002081211106C0F801108211821282138224
:100CF0002CC00E94F10A20E030E040E251E40E9462
:100D0000A60B2CE633E247ED5AE30E94A60B23E341
:100D100033E343E35FE30E94A60B4B015C012AE946
:100D200039E949E95EE3F80160817181828193814B
:100D30000E94A60B9B01AC01C501B4010E94480AA8
:100D4000F8016083718382839383FFEFEF1AFF0AB8
:100D50000C5F1F4F8FEFC81AD80A94E0E916F10410
:100D600009F0AACF8AEBC82E81E0D82E90E6E92EB2
:100D700090E0F92E1982F60180809180A280B380E4
:100D800020E030E0A901C501B4010E94B40A87FF48
:100D900004C0C501B401905802C0C501B4012AE0E5
:100DA00037ED43E25CE30E94A10B18160CF048C03B
:100DB00011E020E030E0A901C501B4010E94A10BBF
:100DC00087FD10E0612F89810E947903F101408045
:100DD00051806280738020E030E0A901C301B2013C
:100DE0000E94B40A87FF04C077FA709477F8709471
:100DF000F60180809180A280B38020E030E0A901DC
:100E0000C501B4010E94B40A87FF04C0B7FAB094C8
:100E1000B7F8B09493018201B501A40189810E94C1
:100E200018040E94C00A8FEF860F823220F0EA81F8
:100E3000FB81608311C083E2EA81FB8180830CC067
:100E4000EA81FB811082F7011486158616861786C3
:100E5000108A118A128A138AEA81FB816191FB83CD
:100E6000EA8389810E940404F981FF5FF98384E0A9
:100E7000C80ED11C94E1E90EF11CE4E02E0E311CE9
:100E8000F43009F078CF1092CA011092CB01109281
:100E9000CC011092CD011092CE011092CF01109290
:100EA000D0011092D1011092D2011092D301109270
:100EB000D4011092D5011092D6011092D701109250
:100EC000D8011092D9010F900F900F90DF91CF9120
:100ED0001F910F91FF90EF90DF90CF90BF90AF9058
:100EE0009F908F907F906F905F904F903F902F904A
:100EF0000C947005CF93DF931F92CDB7DEB72FEF21
:100F000083ED90E3215080409040E1F700C0000065
:100F10000E94A8037894198281E891E00E94340A23
:100F2000CE0101960E94D7098823E1F08981E091E2
:100F30009D018A3011F08D3059F4EE2399F0F0E0E4
:100F4000E651FE4F10820E94180510929D010AC0C2
:100F5000EF3140F491E09E0F90939D01F0E0E65157
:100F6000FE4F80838091A2019091A301A091A401E2
:100F7000B091A50140919E0150919F016091A00107
:100F80007091A101841B950BA60BB70BC297A1050D
:100F9000B10530F20E943A068091A2019091A3011E
:100FA000A091A401B091A50180939E0190939F010F
:100FB000A093A001B093A101B3CF813059F038F0D4
:100FC000823071F0833091F483B780640BC083B7B3
:100FD0008F7B02C083B7806483BF83B7877F05C0E0
:100FE00083B78F7B83BF83B7886083BF83B7887FD6
:100FF00083BF83B7682B63BF0895813049F028F021
:10100000823061F0833069F0089583B78F7E02C02B
:1010100083B7806183BF83B78F7D08C083B78F7E1E
:1010200002C083B7806183BF83B7806283BF0895A6
:1010300089B7816089BF08959093E5018093E401A9
:1010400008951F920F920FB60F9211242F933F9382
:101050004F935F936F937F938F939F93AF93BF93C0
:10106000EF93FF93E091E401F091E501309709F0EF
:101070000995FF91EF91BF91AF919F918F917F91D2
:101080006F915F914F913F912F910F900FBE0F90F5
:101090001F9018958230E1F050F4882381F0813060
:1010A00099F58FB58E7F8FBD8FB58D7F1CC0843035
:1010B000A9F088F0853041F58FB581601BC08FB5F0
:1010C0008E7F8FBD8FB58D7F8FBD8EB5877F18C00A
:1010D0008FB58E7F0FC08FB58E7F02C08FB58160B8
:1010E0008FBD8FB582608FBD8EB588608EBD8EB589
:1010F000806109C08FBD8FB58D7F8FBD8EB5886033
:101100008EBD8EB58F7E8EBD8EB5887F8EBD8EB521
:10111000682B6EBD0895813049F028F0823061F06F
:10112000833069F008958FB58F7B02C08FB58064DE
:101130008FBD8FB58F7708C08FB58F7B02C08FB5FD
:1011400080648FBD8FB580688FBD0895813049F070
:1011500028F0823061F0833069F008958FB58F7E7A
:1011600002C08FB580618FBD8FB58F7D08C08FB5F0
:101170008F7E02C08FB580618FBD8FB580628FBDBD
:1011800008951F920F920FB60F9211242F933F9341
:101190004F935F936F937F938F939F93AF93BF937F
:1011A000EF93FF93E091E001F091E101309709F0B6
:1011B0000995FF91EF91BF91AF919F918F917F9191
:1011C0006F915F914F913F912F910F900FBE0F90B4
:1011D0001F9018951F920F920FB60F9211242F9304
:1011E0003F934F935F936F937F938F939F93AF93AF
:1011F000BF93EF93FF93E091DE01F091DF01309711
:1012000009F00995FF91EF91BF91AF919F918F9157
:101210007F916F915F914F913F912F910F900FBEF2
:101220000F901F9018951F920F920FB60F921124D6
:101230002F933F934F935F936F937F938F939F93DE
:10124000AF93BF93EF93FF93E091DC01F091DD0149
:10125000309709F00995FF91EF91BF91AF919F9160
:101260008F917F916F915F914F913F912F910F904F
:101270000FBE0F901F9018951F920F920FB60F92EE
:1012800011242F933F934F935F936F937F938F938B
:101290009F93AF93BF93EF93FF93E091DA01F091A7
:1012A000DB01309709F00995FF91EF91BF91AF9164
:1012B0009F918F917F916F915F914F913F912F916E
:1012C0000F900FBE0F901F901895813079F038F075
:1012D000823091F08330B1F485B580640FC085B55C
:1012E0008F7B85BD83B7877F83BF0CC085B5806446
:1012F00085BD85B5877F05C085B58F7B85BD85B5E7
:10130000886085BD85B5887F85BD85B5682B65BD41
:101310000895813049F028F0823061F0833069F01F
:10132000089585B58F7E02C085B5806185BD85B580
:101330008F7D08C085B58F7E02C085B5806185BD73
:1013400085B5806285BD08951F920F920FB60F92EA
:1013500011242F933F934F935F936F937F938F93BA
:101360009F93AF93BF93EF93FF93E091E201F091CE
:10137000E301309709F00995FF91EF91BF91AF918B
:101380009F918F917F916F915F914F913F912F919D
:101390000F900FBE0F901F90189583E389B959984D
:1013A000539A549A08955D9BFECF8CB90895FC0121
:1013B0009BB1892F881F8827881F19F08CB18083E3
:1013C00081E008951F920F920FB60F9211242F9370
:1013D0003F934F935F936F937F938F939F93AF93BD
:1013E000BF93EF93FF93E091E801F091E90130970B
:1013F00009F00995FF91EF91BF91AF919F918F9166
:101400007F916F915F914F913F912F910F900FBE00
:101410000F901F9018951F920F920FB60F921124E4
:101420002F933F934F935F936F937F938F939F93EC
:10143000AF93BF93EF93FF93E091E601F091E70143
:10144000309709F00995FF91EF91BF91AF919F916E
:101450008F917F916F915F914F913F912F910F905D
:101460000FBE0F901F9018950F931F93CF938C0171
:10147000C0E0F801EC0FF11D8081882321F00E946B
:10148000D309CF5FF6CFCF911F910F910895505898
:10149000BB27AA270E945F0A0C94670B0E94590B76
:1014A00038F00E94600B20F039F49F3F19F426F4C5
:1014B0000C94560B0EF4E095E7FB0C94500BE92FBF
:1014C0000E94780B58F3BA176207730784079507D1
:1014D00020F079F4A6F50C949A0B0EF4E0950B2EFF
:1014E000BA2FA02D0B01B90190010C01CA01A00176
:1014F0001124FF27591B99F0593F50F4503E68F1D1
:101500001A16F040A22F232F342F4427585FF3CF11
:10151000469537952795A795F0405395C9F77EF4E2
:101520001F16BA0B620B730B840BBAF09150A1F02B
:10153000FF0FBB1F661F771F881FC2F70EC0BA0FB1
:10154000621F731F841F48F4879577956795B79539
:10155000F7959E3F08F0B0CF9395880F08F0992734
:10156000EE0F9795879508950E942C0B08F481E063
:1015700008950E94C00A6894B1110C949B0B0895C1
:101580000E94800B88F09F5798F0B92F9927B75188
:10159000B0F0E1F0660F771F881F991F1AF0BA9517
:1015A000C9F714C0B13091F00E949A0BB1E00895D0
:1015B0000C949A0B672F782F8827B85F39F0B93FC2
:1015C000CCF3869577956795B395D9F73EF49095CA
:1015D0008095709561957F4F8F4F9F4F0895E89448
:1015E00009C097FB3EF490958095709561957F4F6B
:1015F0008F4F9F4F9923A9F0F92F96E9BB27939519
:10160000F695879577956795B795F111F8CFFAF428
:10161000BB0F11F460FF1BC06F5F7F4F8F4F9F4F59
:1016200016C0882311F096E911C0772321F09EE8B7
:10163000872F762F05C0662371F096E8862F70E01D
:1016400060E02AF09A95660F771F881FDAF7880FF7
:101650009695879597F90895990F0008550FAA0B4D
:10166000E0E8FEEF16161706E807F907C0F01216B5
:101670001306E407F50798F0621B730B840B950BB8
:1016800039F40A2661F0232B242B252B21F408950D
:101690000A2609F4A140A6958FEF811D811D0895AA
:1016A00097F99F6780E870E060E008959FEF80EC15
:1016B000089500240A9416161706180609060895B8
:1016C00000240A9412161306140605060895092E1E
:1016D0000394000C11F4882352F0BB0F40F4BF2B8D
:1016E00011F460FF04C06F5F7F4F8F4F9F4F0895CD
:1016F00057FD9058440F551F59F05F3F71F04795C3
:10170000880F97FB991F61F09F3F79F087950895A7
:10171000121613061406551FF2CF4695F1DF08C0C6
:10172000161617061806991FF1CF869571056105E3
:1017300008940895E894BB2766277727CB0197F98B
:1017400008950E942C0B08F48FEF08950E94B90BA6
:101750000C94670B0E94590B38F00E94600B20F02C
:10176000952311F00C94500B0C94560B11240C94EF
:101770009B0B0E94780B70F3959FC1F3950F50E07F
:10178000551F629FF001729FBB27F00DB11D639F33
:10179000AA27F00DB11DAA1F649F6627B00DA11DD9
:1017A000661F829F2227B00DA11D621F739FB00D7F
:1017B000A11D621F839FA00D611D221F749F3327EF
:1017C000A00D611D231F849F600D211D822F762F88
:1017D0006A2F11249F5750409AF0F1F088234AF065
:1017E000EE0FFF1FBB1F661F771F881F91505040D1
:1017F000A9F79E3F510580F00C94500B0C949B0B65
:101800005F3FE4F3983ED4F3869577956795B79557
:10181000F795E7959F5FC1F7FE2B880F911D969571
:10182000879597F90895A29FB001B39FC001A39F28
:10183000700D811D1124911DB29F700D811D112409
:10184000911D08950E94130CA59F900DB49F900DBB
:10185000A49F800D911D11240895662777270C946D
:10186000560CBB274A3031F4992322F4BDE29095FF
:1018700081959F4F0C943D0CBB27FB015527AA2750
:10188000880F991FAA1FA41710F0A41B839550510D
:10189000B9F7A05DAA3308F0A95DA193009779F785
:1018A000B111B1931192CB010C94C50DA0E0B0E041
:1018B000ECE5FCE00C94DE0DEC016B0161157105AB
:1018C00019F0FB01918380837E01FFEFEF1AFF0A7D
:1018D0000881802F90E00E94A40D892B11F0E70170
:1018E000F3CF0D3239F47E0182E0E80EF11C09815C
:1018F00011E008C00B3229F47E0192E0E90EF11CE0
:10190000098110E0E701219743E050E06CE570E0C9
:10191000CE010E94AD0D892BC1F4239645E050E025
:1019200067E570E0CE010E94AD0D892B09F4259684
:10193000C114D10419F0F601D183C0831111F6C08E
:1019400060E070E080E89FE7FAC043E050E064E5C3
:1019500070E0CE010E94AD0D892B59F4C114D10461
:1019600009F4E9C0F2E0EF0EF11CF601F182E08229
:10197000E2C020E030E0A901C0E0D0E0F70180ED56
:10198000A82EA00E89E08A1530F1912F9260B92E11
:10199000812F887012FF04C0811124C0219622C0BB
:1019A00081112197A5E0B0E00E94220CDC01CB015F
:1019B000880F991FAA1FBB1F9C01AD012A0D311D65
:1019C000411D511D283989E93807480789E1580721
:1019D00048F0166006C09EEFA9120AC013FD40C071
:1019E0001860B12E8FEFE81AF80A00811B2DC6CFC0
:1019F000802F8F7D8534A1F580818D3211F41061A7
:101A000006C08B3221F0319661E070E004C0818124
:101A1000329662E070E080538A3018F0E61BF70BD4
:101A20001FC060E070E060389CE079075CF4DB0187
:101A3000AA0FBB1FAA0FBB1F6A0F7B1F660F771F62
:101A4000680F711D3196DF0111978C9180538A3098
:101A500050F314FF03C0719561957109C60FD71F2C
:101A600011FF08C0C114D10429F0CF010197F6017C
:101A700091838083CA01B9010E94EF0A212F23704C
:101A8000233019F04B015C0106C04B015C01B7FA31
:101A9000B094B7F8B09420E030E0A901C501B401DA
:101AA0000E94B40A882309F43EC0D7FF06C0D1952E
:101AB000C195D10903E710E002C00BE810E068010E
:101AC000F8E1CF1AD10890E2E92EF12CCE15DF050E
:101AD00074F0F8012591359145915491C501B401F7
:101AE0000E94A60B4B015C01CE19DF09EFCF045019
:101AF0001109F594E7940C151D0541F78A2D880FFF
:101B00008B2D881F8F3F49F020E030E0A901C501EF
:101B1000B4010E94B40A811106C082E290E0909361
:101B20000B0280930A02C501B40109C060E070E0B5
:101B300080E89FEF04C060E070E080EC9FE7CDB7E5
:101B4000DEB7ECE00C94FA0D91110C94D50D8032B7
:101B500019F089508550C8F70895FB01DC01415008
:101B6000504088F08D9181341CF08B350CF4805EF0
:101B7000659161341CF06B350CF4605E861B61115D
:101B800071F3990B0895881BFCCFDC01FC01672FD2
:101B900071917723E1F7329704C07C916D93708344
:101BA0006291AE17BF07C8F3089599278827089553
:101BB0002F923F924F925F926F927F928F929F925D
:101BC000AF92BF92CF92DF92EF92FF920F931F934B
:101BD000CF93DF93CDB7DEB7CA1BDB0B0FB6F894FC
:101BE000DEBF0FBECDBF09942A88398848885F843C
:101BF0006E847D848C849B84AA84B984C884DF80AD
:101C0000EE80FD800C811B81AA81B981CE0FD11D90
:101C10000FB6F894DEBF0FBECDBFED010895F89466
:021C2000FFCFF4
:101C2200000000410000803FCDCC4C3E000000008F
:101C320000000000000000410000803FCDCC4C3E7F
:101C42000000000000000000000000410000803F92
:101C5200CDCC4C3E0000000000000000000000411E
:101C62000000803FCDCC4C3E000000000000000090
:101C7200808080800000000000000000010101005F
:101C82000000000000010001020101010100010148
:101C9200000001000D0A5541525420446961676EEB
:101CA2006F73746963205374617274696E672E2E48
:101CB2002E0D0A0054657374696E672052584320D2
:101CC200666C6167206469726563746C793A20009E
:101CD200526563656976656420627974653A2000AD
:101CE2004E4F54205345540D0A0053656E642061D3
:101CF2002063686172616374657220746F20746519
:101D0200737420726563657074696F6E2E2E2E0D6A
:101D12000A0043686172616374657220726563656B
:101D2200697665643A2000554152542072656365B4
:101D32007074696F6E20776F726B696E67210D0A1E
:101D420000414353415220526F626F7420526561C9
:061D520064790D0A000097
:00000001FF
